{
  "_format": "hh-sol-artifact-1",
  "contractName": "Whitelist",
  "sourceName": "contracts/Whitelist.sol",
  "abi": [
    {
      "inputs": [
        {
          "internalType": "uint8",
          "name": "_maxWLaddresses",
          "type": "uint8"
        }
      ],
      "stateMutability": "nonpayable",
      "type": "constructor"
    },
    {
      "inputs": [
        {
          "internalType": "address",
          "name": "",
          "type": "address"
        }
      ],
      "name": "WLaddress",
      "outputs": [
        {
          "internalType": "bool",
          "name": "",
          "type": "bool"
        }
      ],
      "stateMutability": "view",
      "type": "function"
    },
    {
      "inputs": [],
      "name": "addAddresstoWL",
      "outputs": [],
      "stateMutability": "nonpayable",
      "type": "function"
    },
    {
      "inputs": [],
      "name": "addressesinWL",
      "outputs": [
        {
          "internalType": "uint8",
          "name": "",
          "type": "uint8"
        }
      ],
      "stateMutability": "view",
      "type": "function"
    },
    {
      "inputs": [],
      "name": "maxWLaddresses",
      "outputs": [
        {
          "internalType": "uint8",
          "name": "",
          "type": "uint8"
        }
      ],
      "stateMutability": "view",
      "type": "function"
    }
  ],
  "bytecode": "0x608060405234801561001057600080fd5b506040516105f43803806105f483398181016040528101906100329190610090565b806000806101000a81548160ff021916908360ff160217905550506100bd565b600080fd5b600060ff82169050919050565b61006d81610057565b811461007857600080fd5b50565b60008151905061008a81610064565b92915050565b6000602082840312156100a6576100a5610052565b5b60006100b48482850161007b565b91505092915050565b610528806100cc6000396000f3fe608060405234801561001057600080fd5b506004361061004c5760003560e01c8063199be281146100515780632b243d441461006f57806350709cd71461009f578063558c79b5146100a9575b600080fd5b6100596100c7565b60405161006691906102aa565b60405180910390f35b61008960048036038101906100849190610328565b6100d8565b6040516100969190610370565b60405180910390f35b6100a76100f8565b005b6100b161027b565b6040516100be91906102aa565b60405180910390f35b60008054906101000a900460ff1681565b60016020528060005260406000206000915054906101000a900460ff1681565b600160003373ffffffffffffffffffffffffffffffffffffffff1673ffffffffffffffffffffffffffffffffffffffff16815260200190815260200160002060009054906101000a900460ff1615610185576040517f08c379a000000000000000000000000000000000000000000000000000000000815260040161017c9061040e565b60405180910390fd5b60008054906101000a900460ff1660ff16600060019054906101000a900460ff1660ff1611156101ea576040517f08c379a00000000000000000000000000000000000000000000000000000000081526004016101e19061047a565b60405180910390fd5b60018060003373ffffffffffffffffffffffffffffffffffffffff1673ffffffffffffffffffffffffffffffffffffffff16815260200190815260200160002060006101000a81548160ff0219169083151502179055506000600181819054906101000a900460ff1680929190610260906104c9565b91906101000a81548160ff021916908360ff16021790555050565b600060019054906101000a900460ff1681565b600060ff82169050919050565b6102a48161028e565b82525050565b60006020820190506102bf600083018461029b565b92915050565b600080fd5b600073ffffffffffffffffffffffffffffffffffffffff82169050919050565b60006102f5826102ca565b9050919050565b610305816102ea565b811461031057600080fd5b50565b600081359050610322816102fc565b92915050565b60006020828403121561033e5761033d6102c5565b5b600061034c84828501610313565b91505092915050565b60008115159050919050565b61036a81610355565b82525050565b60006020820190506103856000830184610361565b92915050565b600082825260208201905092915050565b7f54686973206164647265737320697320616c72656164792077686974656c697360008201527f7465642100000000000000000000000000000000000000000000000000000000602082015250565b60006103f860248361038b565b91506104038261039c565b604082019050919050565b60006020820190508181036000830152610427816103eb565b9050919050565b7f4e6f2077686974656c69737465642073706f7473206c65667421000000000000600082015250565b6000610464601a8361038b565b915061046f8261042e565b602082019050919050565b6000602082019050818103600083015261049381610457565b9050919050565b7f4e487b7100000000000000000000000000000000000000000000000000000000600052601160045260246000fd5b60006104d48261028e565b915060ff82036104e7576104e661049a565b5b60018201905091905056fea264697066735822122085ce6e518c4c7f15a0eea65dad7607b47b15ef734a8101aa1f5396f5d0747dea64736f6c63430008110033",
  "linkReferences": {},
  "deployedLinkReferences": {}
}